:08000000803102288731FD2F39
:100C9E0087314B278631080022000D108D10003051
:100CAE008631872686310C308631872686310D3087
:100CBE00890B5F2E0000080022000D108D100030F1
:100CCE008631872686310F308631872686310D3064
:100CDE00890B6F2E00000800F700F801023077062E
:100CEE00031D7A2E7B2E7D2E4030F8007508F600FF
:100CFE007608F807F81778088631D7268631080067
:100D0E00F00020000C08F1007108F039F1007008B5
:100D1E000F39F00071087004F10022008D10710877
:100D2E008C000C16000022000C120800F3002200AA
:100D3E000D147308F4007408F2000430F236890BB7
:100D4E00A52E7208F4007408863187268631730842
:100D5E000F39F40074088631872686311030890BDE
:100D6E00B62E0032080021001908FC39023899000D
:100D7E00190887396838990023008C018D018E017E
:100D8E00FF3022008C003F308D0007308E00210096
:100D9E008C018D0107308E0087314B27863108007C
:100DAE00F30022000D107308F4007408F2000430F2
:100DBE00F236890BDF2E7208F4007408863187260E
:100DCE00863173080F39F400740886318726863110
:100DDE001030890BF02E00320800F90086315326B0
:100DEE00863102307906031DFD2EFE2E042FF501ED
:100DFE0002308631732686310E2F7903031D082F9C
:100E0E00092F0E2FF5010130863173268631F5013B
:100E1E00003086317326863108008631BA26873136
:100E2E0087319C2787312130FA0020000E18202FA1
:100E3E00212F2F2F7A0886319D2687318631632602
:100E4E0087312A2F000020000E1C2E2F2F2F292F26
:100E5E008E18322F332F3C2F01308631F4268731F6
:100E6E0020008E1C3B2F3C2F372F0E193F2F402F6B
:100E7E001C2F86314F26873120000E1D472F482FFD
:100E8E00432F1C2F8031022822000D111A30F00042
:100E9E00F830890B502FF00B502F003222000D121C
:100EAE001A30F000F830890B5A2FF00B5A2F0032FF
:100EBE0022008D111A30F000F830890B642FF00BE0
:100ECE00642F003222008D121A30F000F830890B98
:100EDE006E2FF00B6E2F003222000D151A30F0001F
:100EEE00F830890B782FF00B782F003222000D1678
:100EFE001A30F000F830890B822FF00B822F00325F
:100F0E0022008D151A30F000F830890B8C2FF00B63
:100F1E008C2F003222008D161A30F000F830890B1B
:100F2E00962FF00B962F003208001430F2007A3014
:100F3E00890B9F2FF20B9F2F22000D10033086314D
:100F4E00872687310730F2007D30890BAC2FF20BEC
:100F5E00AC2F000003308631872687312130890B74
:100F6E00B62F000003308631872687310D30890B6E
:100F7E00BE2F000002308631872687310D30890B57
:100F8E00C62F000002308631872687310830863121
:100F9E00872687310D30890BD22F00000030863125
:100FAE008726873108308631872687310D30890BA9
:100FBE00DE2F0000003086318726873101308631E2
:100FCE00872687310330F2009830890BEC2FF20B15
:100FDE00EC2F003086318726873106308631872602
:100FEE0087310D30890BF92F000008002000873162
:020FFE00142FAE
:020000040001F9
:08000000FF3FFF3FFF3FFF3F00
:04000E00E73FFF3F8A
:00000001FF
